:020000040800F2
:1000000048080020E1000008F50D0008D7090008A5
:1000100000000000000000000000000000000000E0
:10002000000000000000000000000000A51500080E
:1000300000000000000000003D130008A7150008A4
:10004000F3000008F3000008F3000008F3000008C4
:10005000F3000008A7090008F3000008BF09000822
:1000600000000000F3000008F3000008F30000089F
:10007000F3000008F3000008F3000008000000008F
:10008000F3000008F3000008000000005516000807
:10009000F3000008F3000008F3000008F300000874
:1000A000F3000008F3000008F3000008F300000864
:1000B00079170008000000000000000000000000A8
:1000C000F300000800000000F30000080348854624
:1000D00000F0E4FB004800476123000848080020C6
:1000E0000448804704480047FEE7FEE7FEE7FEE7D6
:1000F000FEE7FEE7A9150008CD000008024670B52E
:100100004A40D30FDB0740002DD04A002AD0010E11
:10011000140E000212020919400A520A8418E5015D
:1001200004465443000A120A2E045043A4194219EB
:10013000200CC543AA18120C0125AD03521C5219FC
:1001400012047F39240400D0521C104301D4400013
:10015000491EC2B20C06C0092018401C4008802A63
:1001600002D003E0002070BD40084000002900DA02
:100170000020184370BD70B502464A40D50F4000BC
:100180004A00ED0740085208002814D0002A12D077
:10019000C40DD30D41020120C0055202490A520A82
:1001A000E41A091812187D34914201D3641C00E04E
:1001B0004900002C01DA002070BD0023914201D3D8
:1001C000891A0343400849000028F7D100290AD0C2
:1001D000914202D10121C90705E0914201D20121DA
:1001E00001E00121C943E005C018401900F082FA7E
:1001F00070BD0000F0B507460846584087B0C00FF4
:10020000049048000E46590040084908BC1A88412D
:1002100005D2384631461E4617460B460246580060
:10022000400810434CD0300D039040055900400D5C
:10023000490D0590401A0290402872DA18030121F6
:10024000000B09050843019004980092002805D08E
:100250000199524200208841009201900298402169
:100260000A1A0199009800F011FA05460C466B46EF
:1002700007CB00F02CFAC0197141039A0E0D002330
:10028000D71756401A467A40164344D0049A002A9B
:100290002DD0029A012A039A15DC1205C01A914149
:1002A00001263605001C7141D20F059ED20700932E
:1002B000019202962A46234600F06AFA07B0F0BD82
:1002C00038463146FAE71605224A0F46B218C01AD8
:1002D000B74101210905001C4F4100187F4111461B
:1002E00018187941E20F10436D19644113E0E207D9
:1002F0006D0815436408C2071443039A01261205CA
:10030000C01A91413605001C7141CE0740083043A8
:100310004908C01851412A46234600F02CFACDE77F
:10032000FFE7049801224000C117121A00238B41F5
:1003300004983146C417381AA141EEE730B40124BD
:10034000E407634030BC55E730B40124E407614062
:1003500030BC4FE70000E0FFF0B51FB488B00B9948
:100360000998002448400999C00F4900490809919B
:10037000C0070B990090490049080B91099908980A
:10038000A64608431CD00B990A98084318D0099830
:1003900001244000420D4800410D09982405000346
:1003A000000B204309900B980003000B20430B9097
:1003B00050181C494018002201901446104605E0D0
:1003C000002001460DB0F0BD032801DA034600E02D
:1003D00003239C46C11A0AAE0AE05F0008ADED5B3C
:1003E0004F00F75B7D430027AA187C41491C5B1E28
:1003F0006145F2DD410004AB5A522104120C0A435C
:10040000240C401C0828DFDB0198029000997046FC
:1004100001910090059B049A0799069800F0B8F99D
:10042000D0E700000DFCFFFFF0B50C465C4085B046
:10043000E40FE40703944C00002664085900944636
:10044000490802460296224321D062460A431ED042
:100450006200570D4A000E032303550D0124024686
:100460002C492405781B1B0B360B401823432643CD
:10047000614600901C46501AB44103D30098401CBA
:10048000009002E0921800985B41002803DA0020F7
:10049000014605B0F0BD002001210905074686464A
:1004A00011E064461D46141BB54106D36546521B38
:1004B000B341744607430C43A646CD07400849089C
:1004C000284392185B4105460D43EAD11046184374
:1004D00013D06046194650407140084306D060462C
:1004E000101AB34106D20122002306E000220123A4
:1004F000DB0702E00122D243531000987446010545
:10050000381C6141029C039D0019694100F033F9D8
:10051000BFE70000FD03000010B5002904DB0C4616
:100520000121C9074042A141002B04DB1C460123E5
:10053000DB075242A341101A8B4101D2012010BDAA
:10054000002010BD10B5002904DB0C460121C907AD
:100550004042A141002B04DB1C460123DB07524231
:10056000A341801A994101D2012010BD002010BD85
:1005700010B500229623114600F0C4F810BD00000B
:100580000EB505490291002100910A460B460191E2
:1005900000F0FEF803B000BD33040000410040024B
:1005A0000122400AD205090E80187F2901DA0020B5
:1005B0007047962903DC9622511AC8407047963935
:1005C000884070474A0009030123090B1B051943A2
:1005D000094B10B5520D9A4201DA002010BD064BAE
:1005E00034339A4203DC9A1A00F060F810BD0349D4
:1005F0005118884010BD0000FF030000CDFBFFFF35
:1006000030B50B46014600202022012409E00D46AA
:10061000D5409D4205D31D469540491B2546954032
:1006200040191546521E002DF1DC30BDF0B51FB447
:100630000646002082B005464024019100901BE050
:10064000019922460F46304600F030F8049A059B87
:10065000801A994110D310461946224600F016F828
:10066000361A8F410197224601200021009F00F099
:100670000DF838184D4100902046641E0028DFDC3C
:10068000019B00982946324607B0F0BD10B5202ADC
:1006900004DB0146203A9140002010BD9140202308
:1006A0009C1A0346E3401943904010BD10B5202A20
:1006B00004DB0846203AD040002110BD0B46D34051
:1006C000D0402024A21A91400843194610BD10B50D
:1006D000202A06DBCB170846203A1041C1170B43EE
:1006E00006E00B461341D0402024A21A9140084353
:1006F000194610BD002904DA401C490001D1400808
:100700004000704770B40024050C05D1102400048B
:1007100002D1002921D01124050E01D10002083494
:10072000050F01D10001241D850F01D18000A41CFB
:10073000002801DB4000641C002908D020252E1B66
:100740000D46F540A14000D0012129430843010690
:100750001B1B000ADB1D02D5002070BC7047DB05A7
:10076000181880180029F8DA401C4900F5D170BC2F
:1007700040084000704710B5002B08DA0024401CE8
:10078000614192185B411A4301D14008400010BDFD
:10079000F0B51FB482B005460C0003D0084603F044
:1007A00037FC02E003F034FC203002460090214682
:1007B0002846FFF76BFF049B059A04460F46184333
:1007C0001143084314D0184610431BD00098402111
:1007D0000A1A18460599FFF769FF05460E46009A62
:1007E00005990498FFF752FF084305D0012004E063
:1007F0002046394607B0F0BD0020C11705430E431F
:100800002C43374300990E986305401A7905E40A92
:1008100000220C43FD0A0A3002D500200146E9E718
:100820000105101969410C9C0D9D00196941FFF7E4
:10083000A2FFDFE74A0009030123090B1B05194347
:100840000A4B10B5520D9A4202DA0020014610BD43
:10085000064B34339A4203DC9A1AFFF727FF10BD88
:10086000034BD218FFF712FF10BD0000FF0300007A
:10087000CDFBFFFF10B5002904DB0124E407404253
:100880008C412146002B04DB1C460123DB0752422E
:10089000A341994200D1904210BD0000064C0125B1
:1008A000064E05E0E36807CC2B430C3C9847103418
:1008B000B442F7D3FFF70EFC744F0008944F0008C2
:1008C00070B58C180578401C6B075B0F01D103785D
:1008D000401C2A1106D10278401C03E006780E70F5
:1008E000401C491C5B1EF9D12B0705D40023521E66
:1008F0000DD40B70491CFAE70378401CCB1A921CEC
:1009000003E01D780D70491C5B1C521EF9D5A142F5
:10091000D8D3002070BD10B585B00A46049003A856
:10092000017001A80021017068460170039B02ACB0
:1009300023700170FFE76846007801282FDCFFE78D
:10094000049869460978405C0299414002A8017008
:1009500001A800210170FFE701A80078072818DC32
:10096000FFE702A800780006002807D5FFE70298F5
:1009700040003121484002A9087004E0029840007C
:1009800002A90870FFE7FFE70198401C01A9087061
:10099000E2E7FFE70098401C69460870CBE702A831
:1009A000007805B010BD80B5012001F0DFFA002805
:1009B00004D0FFE7012001F0D1FAFFE780BD80B548
:1009C000402001F0D3FA002804D0FFE7402001F0D6
:1009D000C5FAFFE780BDFFE7FEE780B588B00920D4
:1009E000C0060121002241F2000307900691059301
:1009F00001F0F8FB40F600000799049008460499BE
:100A000001F0B2FB0220039001F016F90799029061
:100A10000846059901F0A8FB039801F00DF9079924
:100A200001900846049901F0A7FB039801F004F92E
:100A3000079900900846049901F096FB069801F08A
:100A4000FBF808B080BD80B584B00920C006012144
:100A500040F6000203900291029B01921A46019B0C
:100A600001F0C0FB41F20000039900900846029992
:100A7000029A009B01F0B6FB0398019901F07CFB00
:100A80000398009901F078FB04B080BD80B588B070
:100A90000920C0060121002241F2000307900691BF
:100AA000059301F09FFB40F600000799049008466B
:100AB000049901F059FB0220039001F0BDF8079959
:100AC00002900846059901F057FB039801F0B4F82D
:100AD000079901900846049901F04EFB039801F034
:100AE000ABF8079900900846049901F03DFB069881
:100AF00001F0A2F808B080BD80B588B007A8002139
:100B000001700920C006012241F200030591049200
:100B100001F068FB049801F08FF806A9059A0A70A5
:100B2000FFE706A8007807282CDCFFE70920C006AD
:100B300040F600010390029101F016FB022001F043
:100B40007BF8039901900846029901F015FB07987C
:100B5000400007A9087041F20001039801F02DFB45
:100B6000002806D0FFE707980121084307A908706D
:100B7000FFE7012001F060F8FFE70698401C06A996
:100B80000870CEE70920C00640F6000101F0ECFA3B
:100B900007A8007808B080BD10B58AB0014609AA40
:100BA00010700920C0060122002341F200040790C2
:100BB000069111461A460593234601F013FB40F6B1
:100BC0000001079801F0D0FA08A805990170FFE725
:100BD00008A80078072839DCFFE709A80078000694
:100BE000002807D5FFE70920C00641F2000101F007
:100BF000C3FA06E00920C00641F2000101F0B4FA90
:100C0000FFE70998400009A908700220049001F04C
:100C100013F80921C90640F6000203900846029124
:100C20001146019201F0A8FA049801F005F8029922
:100C300000900846019901F097FA049800F0FCFF33
:100C4000FFE70898401C08A90870C1E70AB010BD6A
:100C500080B586B00920C0060121002241F20003C0
:100C60000590049301F0BEFA0598049901F084FA06
:100C700040F60000059903900846039901F07CFABC
:100C80000420029000F0D8FF0599019008460499CD
:100C900001F06AFA029800F0CFFF0599009008462B
:100CA000039901F061FA06B080BD80B586B00920D5
:100CB000C0060121002241F200030590049301F0D7
:100CC00091FA40F60000059903900846039901F057
:100CD0004BFA0598049901F047FA0420029000F0BD
:100CE000ABFF059901900846039901F045FA029877
:100CF00000F0A2FF059900900846049901F03CFA23
:100D0000029800F099FF06B080BD80B58EB00CA8A7
:100D1000C82101700920C0060121002241F2000310
:100D20000B900A910992089301F05CFA0B980899CC
:100D300001F022FA0A9800F07FFF40F600010B9ABA
:100D40000790104601F010FA0A9800F075FF0B9911
:100D50000690084609990A9A089B01F043FA0A98F6
:100D600000F06AFFFFE70920C00641F2000101F030
:100D700024FA00281BD0FFE70C98401E0CA908702D
:100D80000120059100F058FF05990A78002A0AD140
:100D9000FFE70920C00640F6000101F0E5F90DA8C3
:100DA0000121017022E0012000F046FFDBE7012075
:100DB000049000F041FF0921C90640F600020390AB
:100DC000084602911146019201F0D6F9049800F00C
:100DD00033FF029900900846019901F0C5F9049883
:100DE00000F02AFF0DA900220A70FFE70DA8007885
:100DF0000EB080BD704780B584B003A8002101709B
:100E0000FFE703A80078072828DCFFE70398B03045
:100E1000C0B20021019100F03FFA0198019900F061
:100E20003BFA1020019900F037FA02A801990170ED
:100E3000FFE702A800787F280ADCFFE700200121F5
:100E400000F02AFAFFE70298401C02A90870F0E7B8
:100E5000FFE70398401C03A90870D2E704B080BDE7
:100E600080B582B08D200021019100F015FA142088
:100E7000019900F011FAAF20019900F00DFA02B0CB
:100E800080BD000080B58CB06F480121002208238E
:100E90000B900A910992089301F0A4F903200B9991
:100EA000079008460999079A089B01F0E3F910207A
:100EB0000B99069008460A99099A069B01F092F947
:100EC0000B980999079A069B01F0D4F920200B99F9
:100ED000059008460A99099A059B01F083F90B9839
:100EE0000999079A059B01F0C5F940200B990490D8
:100EF00008460A99099A049B01F074F90B9809991C
:100F0000079A049B01F0B6F980200B9903900846DC
:100F10000A99099A039B01F065F90B980999079AB8
:100F2000039B01F0A7F90B98059901F025F96420BE
:100F300000F0BCFE0B98059901F016F9C82002904C
:100F400000F0B4FE0B98059901F016F9AE2009994E
:100F500000F0A2F90998099900F09EF906980999FC
:100F600000F09AF90498099900F096F981200999FE
:100F700000F092F9CF20099900F08EF9A12009998B
:100F800000F08AF90298099900F086F9A6200190EC
:100F9000099900F081F9A820099900F07DF93F2016
:100FA000099900F079F9D320099900F075F90998A9
:100FB000099900F071F9D520099900F06DF90398AD
:100FC000099900F069F9D920099900F065F9F12033
:100FD000099900F061F9DA20099900F05DF9122011
:100FE000099900F059F9DB20099900F055F90498A6
:100FF000099900F051F90598099900F04DF902207E
:10100000099900F049F98D20099900F045F914205B
:10101000099900F041F9A420099900F03DF90198DF
:10102000099900F039F9AF200090099900F034F9DE
:101030000098099900F030F9FFF7DDFE0998099949
:1010400000F004F80CB080BD0004004810B586B074
:101050000A46034605AC207004A801700498B0301D
:10106000C0B20021039102920193009400F014F9A0
:1010700000980178090910310846039900F00CF92D
:101080000598012108430F210840039900F004F955
:1010900006B010BD70B58AB013460C46054609AEC1
:1010A000307008A8017007A90A7005A900220A700B
:1010B00031780078049008460499039302940195CE
:1010C0000092FFF7C3FF06A800990170FFE706A88A
:1010D00000780F2815DCFFE707A8007880011D497C
:1010E000081806A90978405C012100F0D5F8059898
:1010F000401C05A90870FFE70698401C06A9087067
:10110000E5E709A800780899491CC9B2FFF79EFFD6
:1011100006A800210170FFE706A800780F2817DC59
:10112000FFE707A8007880010A49401806A9097856
:1011300040182021405C012100F0AEF80598401CC9
:1011400005A90870FFE70698401C06A90870E3E7A8
:101150000AB070BD0400002070B586B013460C467E
:10116000054605AE307004A8017003A8027002A8FD
:101170000021017001AA11700399203901703078A3
:10118000802808DBFFE705A8002101700498801C77
:1011900004A90870FFE705A8007804A90978FFF7FB
:1011A00055FF01A800210170FFE701A8007807287A
:1011B00011DCFFE702A80078000101A909784018B6
:1011C0001749085C012100F067F8FFE70198401C0F
:1011D00001A90870E9E705A800780499491CC9B27B
:1011E000FFF734FF01A800210170FFE701A8007894
:1011F000072812DCFFE702A80078000101A909789E
:10120000401807494018007A012100F045F8FFE72F
:101210000198401C01A90870E8E706B070BDC046FF
:1012200012490008B0B586B00B46044605AD2870DB
:1012300004A80170039202A800210170FFE703983F
:1012400002A90978405C002823D0FFE705A80178AF
:1012500004AA1278039B02AC24781B5D0190084617
:1012600011461A46FFF778FF059808300199087073
:101270000878792808DBFFE705A8002101700498A9
:10128000801C04A90870FFE70298401C02A908709E
:10129000D5E706B0B0BD000010B584B00A460346DD
:1012A00003AC207002A801700078002805D0FFE789
:1012B0002148402100F060FF04E01F48402100F079
:1012C00053FFFFE71C48802100F04EFF01A80021DA
:1012D0000170FFE701A80078072822DCFFE7164825
:1012E000082100F041FF03A800780006002805D57A
:1012F000FFE71148102100F03FFF04E00E481021E5
:1013000000F032FFFFE70C48082100F035FF03989A
:10131000400003A90870FFE70198401C01A908706C
:10132000D8E705488021009000F026FF4021009872
:1013300000F022FF04B010BD000400487047000018
:1013400080B594B01290119110A8002101700B91FA
:101350000A91099108910790FFF77AFC4F4800F035
:10136000F1F80690FFF7A1FC322000F09FFCFFF798
:101370006FFC06200EA9059100F0A0F807990870EF
:10138000FFF793FCFF210598FFF7C5FA05998A78C6
:1013900090420DD1FFE70EA8C11CFF220490084621
:1013A0001146FFF7B8FA04994A79904209D0FFE74D
:1013B00010A80178404802F007FE13A901220A7024
:1013C00067E00E9800020EA94A7880180DAA1080D6
:1013D00010880391FFF7D4F80022314B0292FEF7F8
:1013E000BBFF304A029B01921A46019BFFF71CF893
:1013F0002D4B029AFEF7FEFE0B910A900398C178DE
:101400000902027989180CAA11801088FFF7B8F830
:10141000264B029AFEF7A0FF029A019BFFF704F801
:10142000099108900A980B99214B029AFFF774F8DA
:1014300000282AD1FFE70A980B9900221D4BFFF7DD
:1014400081F8002821D1FFE708980999002200922D
:10145000009BFFF761F8002817D1FFE7089809996A
:101460000022124BFFF76EF800280ED1FFE70A9812
:101470000B99129A5160106008980999119A51605D
:10148000106013A80021017003E013A8012101706E
:10149000FFE713A8007814B080BDC046062C0000FA
:1014A00000E06540E0FFEF40008046C0000059408A
:1014B000000034C000405F40474F000880B586B050
:1014C000024604AB18700391354800784000401C78
:1014D000C0B20092FFF760FBFFF717FC02A908708B
:1014E0000878002804D0FFE705A80121017025E055
:1014F00001A800210170FFE701A8007804A909787C
:10150000491E88420EDAFFE7FFF7F6FA039901AAAF
:1015100012788854FFF761FAFFE70198401C01A98F
:101520000870E9E7FFF7E8FA039901AA12788854EE
:10153000FFF7ACFA05A800210170FFE705A80078C5
:1015400006B080BD80B586B0014605AA10805078EF
:1015500004AA107005985070114800784006000EDB
:1015600002910192FFF718FBFFF7CFFB03A9087068
:10157000019800780091FFF70FFBFFF7C6FB039976
:1015800001430098017001994878FFF705FBFFF7C8
:10159000BCFB0399014300980170007806B080BD40
:1015A000480300207047704780B582B0204801682A
:1015B000012211430160FFE71D48006880070028F1
:1015C00001D4FFE7F8E71B4801681B4A114001609E
:1015D00001681A4A1140016015480168184A114013
:1015E0000160184801680F229143016016480168A4
:1015F00040F20312914301600168012213049943F0
:1016000001600168D3079943016010480168914364
:1016100001600F48002101600192009101F020FC5F
:101620000198C006009901F09DF802B080BDC04647
:1016300000100240041002400C00FF08FFFFC277B8
:10164000FFFFF2FE2C100240301002403410024026
:101650000810024080B584B03C48012102F0B4F982
:10166000002804D0FFE73A4800210170FFE737481F
:10167000022102F0A9F900285DD0FFE7334801F00C
:101680009BFF344908600968334802F09DFC3049EB
:101690000978002909D1FFE72D48012101702F4861
:1016A000002101603148017044E02C480168490084
:1016B0000160284800682A49884204D3FFE7274888
:1016C000002101601FE023480068264988420CD3AE
:1016D000FFE7204800682449884206D8FFE71F48F2
:1016E00001680122114301600CE01A480068652876
:1016F00007D3FFE7174800681B49884201D8FFE776
:10170000FFE7FFE7FFE719480178491C01700078FF
:1017100020280EDBFFE7114802686A48144903904D
:1017200002F062FC134902900846039902F04CFC57
:10173000FFE7FFE7FFE705480021019001F046FFC2
:101740000321019802F037F904B080BD0020004069
:101750005C030020580300200A4F00087C0300208F
:10176000B90B0000E9030000B70B00005D03002087
:10177000144F00080F4F000880B5BA48064902F020
:1017800060FA002806D0FFE7B64802F0E5F902F05B
:101790004DF9FFE780BDC0460500050781B0014651
:1017A0006A461070107840B200280DD4FFE76846F2
:1017B000007840B21F2102460A40012191404009B1
:1017C0008000024A8150FFE701B0704700E100E06D
:1017D00070B582B0024601AB18700091187840B223
:1017E000002817D4FFE701A8017849B20322D243A9
:1017F0001140184BC958007840B28407E40EFF2509
:10180000A540A943009DAD01EDB2A540294310407C
:10181000C1501AE001A801780F22114008390323B2
:10182000DB4319400A4C0959007840B28507ED0E98
:10183000FF26AE40B143009EB601F6B2AE40314342
:101840001040083818400151FFE702B070BDC04693
:101850001CED00E000E400E080B588B017480168A6
:101860004068079008460799FEF7ACFE01210690F4
:101870000846069900F070FE11490A68496805900B
:101880001046FEF79FFE022104900846049900F0DE
:1018900063FE0C4965220B23039010461A4600F0A4
:1018A0000FFE0949097866220290104600F0ACFD4F
:1018B000019000F03BFA08B080BDC04690030020C4
:1018C00070030020490300208A03002080B58AB0FD
:1018D000454801F063F9454801F060F9444801F0DA
:1018E0005DF9444801F05AF940F2006001F056F900
:1018F0000920C006012140F20022099008910792B8
:1019000000F0D0FB40F20040099906900846089983
:10191000069A00F0C7FB0220099905900846059930
:10192000089A079B00F05EFC002009990490084685
:101930000499089A079B00F09DFC09980599089A5C
:10194000069B00F04FFC09980499089A069B00F04A
:1019500091FC04200999039008460899039A00F025
:10196000A1FB08200999029008460899029A00F004
:1019700099FB09980599089A039B00F033FC099894
:101980000499089A039B00F075FC09980599089A38
:10199000029B00F027FC09980499089A029B00F02A
:1019A00069FC402309980499089A00F01BFC102355
:1019B00009980499089A00F015FC0F480499089AB0
:1019C000089B00F00FFC80200999019008460899B7
:1019D000049A019B00F006FC032209980499019BDC
:1019E00000F048FC0AB080BD110500000E060000A2
:1019F00011070000120500000004004880B584B003
:101A00001748039002F0BCF8E1204102039802F06D
:101A10004BF80420039902900846029902F044F919
:101A20000820039901900846019902F04CF90398A7
:101A300002F0CEF80B48009002F0A2F842F280517A
:101A4000009802F031F80098029902F02DF9009800
:101A5000019902F038F9009802F0BAF804B080BD9C
:101A6000003801400044004070B58AB006A9024623
:101A700009AB188018884D4BC018C07804AB18709B
:101A800018780C280291019000D98CE0019881000F
:101A900001A251188F46C04600F018B800F019B8DE
:101AA00000F01AB800F01BB800F027B800F029B811
:101AB00000F02BB800F077B800F06AB800F073B807
:101AC00000F071B800F06FB800F065B800F01AFCD3
:101AD0006AE000F05FFE67E000F0D8FA64E009A871
:101AE0000088324940188079334908700320002269
:101AF0000090009902F014FA56E02E48012101707E
:101B000052E02B48012101704EE009A80188274AC4
:101B1000891809790902008880184079081805A9F0
:101B2000088006A800210180FFE706A8008805A913
:101B3000098888422BDAFFE709A8018806AA1388DA
:101B4000C9181A4BC918097A090208AC2180018802
:101B500015884919C918497A029DAE687118218003
:101B60000088181811884018801D00F027F807A970
:101B700008700878012801D1FFE700E0FFE702982C
:101B8000816802688918091D06AA1180CDE70BE05B
:101B9000FFF762FE08E009A8008804490818801DC4
:101BA00000F03FFD00E0FFE70AB070BDD203002067
:101BB00088030020780300204104002010B588B07D
:101BC00006900698007805A908700698407803AA40
:101BD000107006988078000201AB18800698C078D3
:101BE000019C201818800878009200F021FA04A9BE
:101BF000087000980278097849000E4B5918497806
:101C00008A4204D0FFE707A8002101700EE005A872
:101C100000780699091D01AA128800F085F902A929
:101C20000870FFE7029807A90870FFE707A8007887
:101C300008B010BD024F000880B584B0039003982F
:101C4000FEF796FC18490968FEF758FAFEF7A6FC5D
:101C500033490860334800210160334801210160A5
:101C6000FFE7314800680290FFE7002002A90978E9
:101C7000C9070029019008D0FFE702A88078012158
:101C80000840414248410190FFE70198C007002801
:101C9000E7D1FFE724480168012291430160214810
:101CA0000021016004B080BD6403002080B584B0D1
:101CB00003900398FEF75CFC18490968FEF71EFACA
:101CC000FEF76CFC164908601648002101601648B2
:101CD00001210160FFE7144800680290FFE700203F
:101CE00002A90978C9070029019008D0FFE702A8D6
:101CF000807801210840414248410190FFE7019866
:101D0000C0070028E7D1FFE7074801680122914397
:101D1000016004480021016004B080BD6003002020
:101D200014E000E018E000E010E000E080B592B0C0
:101D30005448016840680022534B1190084611999D
:101D40001092FEF771FB514A514B0F9010460E91C5
:101D500019460F9B0D921A460E9B02F045F91099F9
:101D60000C900846109AFFF795F9102001210B906E
:101D7000109A0A9111460A9AFFF78CF92020022145
:101D80000990109A08911146089AFFF783F93020BC
:101D900004210790109A06911146069AFFF77AF9E6
:101DA0004020059010990D9AFFF73CFA1098089979
:101DB000109AFFF76FF90B9808990A9AFFF76AF9DA
:101DC000032209980899FFF765F907980899069A78
:101DD000FFF760F92F48436802682F490D9802F019
:101DE00003F905990490084608990D9AFFF71AFA25
:101DF000072210980699FFF74DF908220B980699CB
:101E0000FFF748F9092209980699FFF743F90A22D2
:101E100007980699FFF73EF93A2205980699FFF7C9
:101E20009BF940480078002806D0FFE750200421A5
:101E30000B22FFF72FF905E0502004210C22FFF7B9
:101E400029F9FFE70020062105220391FFF722F977
:101E500010200399039AFFF71DF90C480F49104A07
:101E6000029002F0C1F820213A220190084603991D
:101E7000FFF772F928200399029AFFF7D3F912B0FD
:101E800080BDC0469003002000002440980300203D
:101E9000664F0008700300205E4F00086C4F00087A
:101EA0004903002080B58AB00A46089007A801803F
:101EB00008990088049008460499039200F0A8FB52
:101EC00005A90870087800280DD1FFE71548002102
:101ED0000170029100F098FE6620029900F094FAD9
:101EE00006A908700CE00F4801210170019100F073
:101EF0008BFE6620019900F087FA06A90870FFE7BB
:101F000006A80078012804D1FFE709A80121017083
:101F100003E009A800210170FFE709A800780AB0D2
:101F200080BDC0468A030020B0B584B01346044685
:101F300003AD2870029101A802802878662808D194
:101F4000FFE7029801A90988FFF7ACFF694608700E
:101F500000E0FFE76846007804B0B0BD81B00090B3
:101F600000981249086001B07047C04684B00290E2
:101F70000E4800680299084001900D4800680299D7
:101F8000084000900198002808D0FFE7009800283A
:101F900004D0FFE703A80121017003E003A800219A
:101FA0000170FFE703A8007804B0704714040140F3
:101FB0000004014080B582B00190009101A8017831
:101FC000074801F0D1FDFFE70548064901F009FE89
:101FD000002801D1FFE7F7E7019802B080BDC046B5
:101FE000003801400707000084B00A46039002A8A9
:101FF000018068460021017001A80180FFE701A867
:10200000008802A9098888420EDAFFE70398411C7C
:10201000039100780099081869460870FFE7019855
:10202000401C01A90880EAE76846007804B07047C0
:1020300080B584B0014603AA1070009100F024F826
:1020400001A9087002A800210170FFE702A800782A
:1020500001A90978884211DAFFE702A80078400058
:102060000849085C03A90978884201D1FFE705E027
:10207000FFE70298401C02A90870E7E702A8007871
:1020800004B080BD024F00080420704780B582B0C4
:1020900001A80021017002780220032101F040FF15
:1020A00002B080BD86B00590049103920598006A45
:1020B00001900598406A009002A800210180FFE786
:1020C00002A8008807281ED8FFE702A80088039905
:1020D000C140C807002810D0FFE702A80188890086
:1020E0000F228A4001999143019104990088800050
:1020F0008140019808430190FFE7FFE70298401CE8
:1021000002A90880DCE702A808210180FFE702A8F5
:1021100000880F2820D8FFE702A800880399C14053
:10212000C807002812D0FFE702A8018889002039DB
:102130000F228A4000999143009104990088800001
:1021400020388140009808430090FFE7FFE702989D
:10215000401C02A90880DAE70198059908620098F6
:102160000599486206B0704782B0019000910098CE
:102170000199886202B0704782B001900091009886
:102180000199886102B0704780B584B00920C0060B
:1021900002210022102303900292019300F022F802
:1021A000032203980299019B00F064F8042103982C
:1021B000019AFFF777FF04B080BD83B001900091D2
:1021C000019800690099084204D0FFE702A80121A4
:1021D000017003E002A800210170FFE702A8007867
:1021E00003B0704787B00690059104920393069858
:1021F000006801900698C068009002A80021018044
:10220000FFE702A800880F282CD8FFE702A8008863
:102210000399C140C80700281ED0FFE702A8018823
:102220004900032213468B40019999430191059976
:1022300003885B009940019B0B430193018849008F
:102240008A400099914300910499008840008140A0
:10225000009808430090FFE7FFE70298401C02A99E
:102260000880CEE701980699086000980699C86032
:1022700007B0704710B586B00C46059004A80170F1
:10228000039202930078012806D1FFE7029805998E
:102290004A6802434A6005E0029805994A68824309
:1022A0004A60FFE705988068009001A8002101803E
:1022B000FFE701A800880F281ED8FFE701A80088C3
:1022C0000299C140C807002810D0FFE701A8018883
:1022D000490003228A4000999143009103990088A4
:1022E00040008140009808430090FFE7FFE7019815
:1022F000401C01A90880DCE700980599886006B0B9
:1023000010BD000080B584B003A8002101701348FF
:10231000007800280ED1FFE703A801780022029080
:102320000846114600F012FD029908700B48012280
:1023300002700AE003A801780122019008461146C4
:1023400000F004FD01990870FFE703A8027800205F
:10235000032101F0E5FD04B080BDC0466803002004
:1023600010B58CB000200B9000F07EFD40F2F41010
:10237000FFF79CFC1C2101220A900846114600F040
:10238000D7F9FFF7A3FA0990FFF738FB089000F0A0
:10239000F9F90790FEF757FB174905220690084602
:1023A000114601F03BFC01F065F8059001F0B8FC26
:1023B000FEF768FD0490FEF753FDC8210390084620
:1023C000FFF774FCFFE701F0C1FCFFF745FA0B488B
:1023D0000B490290FEF7B4FF02990A68496800238E
:1023E000084C019010461A462346FDF7B5FF029AA5
:1023F00051601060E7E7C0460044004090030020B1
:10240000700300200000244010B588B00A4603463F
:1024100006AC207005A8017004A8002101807B484B
:102420000078012804D1FFE707A80121017043E0EB
:1024300004A8018806AA127803900846114600F005
:1024400085FC03990880088801221146029200F059
:102450007DFC039908800888002100F077FC03992F
:1024600008800888029900F071FC0399088005A88B
:10247000007800280BD1FFE704A801880022019012
:102480000846114600F062FC019908800AE004A8A1
:102490000188012200900846114600F057FC00997F
:1024A0000880FFE704A802880720032101F038FD17
:1024B00007A801210170FFE707A8007808B010BD48
:1024C000B0B588B01346044606AD2870059104A83F
:1024D000028003A8002101804C480078012804D123
:1024E000FFE707A80121017032E003A8018806AACE
:1024F000127802900846114600F028FC02990880E4
:10250000088803221146019200F020FC02990880FD
:10251000088804AA5178009200F018FC02990880FB
:102520000888009A117800F011FC02990880088848
:102530000599009A128800F0E5FB029908800A8844
:102540000720019901F0ECFC07A801210170FFE7C9
:1025500007A8007808B0B0BD80B586B0024604ABCD
:102560001870039102A800210180284800780128F2
:1025700004D1FFE705A80121017042E002A801880B
:1025800004AA127801900846114600F0DFFB019979
:1025900008800888022100F0D9FB0199088008888A
:1025A000002100F0D3FB019908800888042100F085
:1025B000CDFB01990880088803AAD178009200F029
:1025C000C5FB019908800888009A917800F0BEFB4D
:1025D000019908800888009A517800F0B7FB0199AA
:1025E00008800888009A117800F0B0FB01990880F3
:1025F0000A880720032101F093FC05A8012101703E
:10260000FFE705A8007806B080BDC046890300201A
:1026100082B00A460190684601800198007802B0B5
:10262000704781B0009000980078012801D1FFE741
:1026300000E0FFE701B0704787B0134605900491B2
:1026400003A802800598029004980190059800283C
:1026500004D0FFE70498002803D1FFE7002006908C
:102660003EE002980199884208D9FFE70298019953
:1026700003AA12888918884218D9FFE76846002102
:102680000180FFE76846008803A9098888420CDAC0
:10269000FFE7019869460988405C029A5054FFE7B9
:1026A0000098401C69460880ECE716E003986946EC
:1026B0000880FFE76846008801280DDBFFE70198E6
:1026C00069460988491E405C029A5054FFE7009809
:1026D000401E69460880EDE7FFE705980690FFE792
:1026E000069807B0704783B00190002000900198D1
:1026F000002803D1FFE70020029010E000200090A6
:10270000FFE70198411C01910078002804D0FFE701
:102710000098401C0090F4E700980290FFE70298B0
:1027200003B0704780B51320002100F001F880BD90
:1027300010B586B00A46034605AC207004A80170A7
:10274000217849B2007803900846039902920193D8
:102750000094FFF73DF80098017848B2FFF71EF8A3
:1027600006B010BD82B00190009101980099034A13
:10277000114008430249086002B0704780FFFF1F04
:1027800008ED00E080B5FFF7FFFCFFF7CBFF00F09E
:10279000CFFE80BD80B594B013A80021017010AAAF
:1027A0001181119110910178344A0F9010460E91C9
:1027B0000D92FFF798FF82B20E980D9900F0A2FAE1
:1027C0000F99087008782E4A0C9010460B92FFF76C
:1027D0008AFF82B20C980B9900F094FA0F99087056
:1027E0000878284A0A9010460992FFF77CFF82B2C7
:1027F0000A98099900F086FA0F9908700878224A19
:10280000089010460792FFF76EFF82B2089807996A
:1028100000F078FA0F99087008781C4A0690104664
:102820000592FFF760FF82B20698059900F06AFAF8
:102830000F9908700878164A049010460392FFF723
:1028400052FF82B20498039900F05CFA0F99087065
:102850000878104A029010460192FFF744FF82B2B6
:102860000298019900F04EFA0F9908700A78012039
:10287000032101F055FB14B080BDC046184F00087D
:10288000344F00081F4F0008274F00082D4F000845
:102890002B4F0008454F00089CB001461BAA107042
:1028A00000201A9019901890179016901590149077
:1028B00013901290119010900F900E900D900C901C
:1028C0000B90AD4A0A92AD4A099208900790069281
:1028D000059004920390AA4800680C2210408008DA
:1028E0001A901A980028029008D0FFE70298012851
:1028F00007D0FFE70298022806D045E0A3481690CB
:1029000045E0A248169042E09D4801680F229204DB
:102910001140890C109100680121C9060840C00EC1
:102920000F900F98012804D1FFE7109811301090F4
:102930000BE010980F2803D1FFE71020109003E060
:102940001098801C1090FFE7FFE78D480068012178
:1029500009040840000C0E900E9800280ED0FFE7E6
:10296000894800680F210840401C0D900D98874948
:10297000B1FBF0F010994143169104E010988149A1
:1029800041431691FFE702E080481690FFE77C483C
:102990000168C9B209090C910C9907AA515C0B9105
:1029A00016990B9AD1401591016840F200721140BE
:1029B000090A0C910C9905AA515C0B9115990B9A77
:1029C000D1401491006843F600010840C00A0C9001
:1029D0000C9803A9085C0B9015980B99C8401390AC
:1029E0001BA800780528019000D9C1E0019881005A
:1029F00001A251188F46C04600F00AB800F00BB88B
:102A000000F00CB800F00DB800F00EB800F081B87E
:102A100016981790ADE015981790AAE014981790A3
:102A2000A7E013981790A4E05948006840F20011FD
:102A3000084088420FD0FFE755480068012109048B
:102A40000840884203D0FFE75348129002E0514803
:102A50001290FFE75AE04A48006880B2800B199054
:102A60004B480068C00F18901998032800904BD865
:102A70000098810001A251188F46C04600F006B8A8
:102A800000F013B800F020B800F02FB81898002814
:102A900004D1FFE713984008129005E01598032130
:102AA000B0FBF1F01290FFE72FE01898002804D156
:102AB000FFE713988008129005E015980521B0FBF8
:102AC000F1F01290FFE720E01898002806D1FFE708
:102AD00013980621B0FBF1F0129005E0159807213C
:102AE000B0FBF1F01290FFE70FE01898002804D136
:102AF000FFE71398C008129005E015980921B0FB74
:102B0000F1F01290FFE700E0FFE7FFE7129817905F
:102B10002FE01F4800688007002803D1FFE71398C3
:102B2000119022E01A48006803210840012803D1CF
:102B3000FFE71698119017E0154800680321084038
:102B4000022804D1FFE748F2000011900BE0104882
:102B5000006803210840032803D1FFE70B481190C8
:102B600000E0FFE7FFE7FFE7FFE71198179000E0BD
:102B7000FFE717981CB07047060708090102030415
:102B80000410024000093D002C10024000127A009F
:102B900030100240003FAB01809FD50010B581B0DE
:102BA00001466A46108010881F2203461340012206
:102BB0009A408009A54BC4581443C45001B010BDBD
:102BC00010B581B001466A46108010881F22034666
:102BD000134001229A4080099C4BC4589443C4502E
:102BE00001B010BD10B581B001466A461080108852
:102BF0001F220346134001229A408009934BC45878
:102C00001443C45001B010BD80B5024800F004F870
:102C100080BDC0467F80FE0180B58CB00B903548EA
:102C2000099000F04DFD0021099800F0CFFC0998B3
:102C300000F04FFD3048FEF7FFFF09990890084665
:102C400000F03EFD2D48FEF7F7FF1F210A91FFE738
:102C50000A98002837D4FFE70B980A99C840C007A4
:102C6000002815D0FFE723480021079000F0AEFCB4
:102C7000079800F02EFD40F23020FEF7DDFF0799A7
:102C80000690084600F01CFD1D48FEF7D5FF15E034
:102C900018480021059000F099FC059800F019FDF6
:102CA00040F230200490FEF7C7FF059903900846D4
:102CB00000F006FD0498FEF7BFFFFFE7FFE70A9864
:102CC000401E0A90C4E70B480021029000F07EFCF1
:102CD000029800F0FEFC40F23020FEF7ADFF0299B2
:102CE0000190084600F0ECFC0548FEF7A5FF0CB08B
:102CF00080BDC0460004004028230000941100005D
:102D00009A060000B0B58AB01346044609AD288083
:102D1000089107A802802988174A5118891D069131
:102D20000699089A0088059008461146059A04936A
:102D300003940295FFF780FC0799099A5118029AAB
:102D400011801188019008460AB0B0BD10B583B05B
:102D50000A46034602AC208001A80170208806497B
:102D60000818801D00900198009908700298401C76
:102D70002080208803B010BD0A04002083B000200A
:102D80000290019031480168012212041143016050
:102D9000FFE70298401C02902C480068012149047A
:102DA00008400190FFE7019800210028009107D119
:102DB000FFE702982649401A411E88410090FFE72C
:102DC0000098C0070028E4D1FFE72048006880038E
:102DD000002802D4FFE7FFE7FEE71E480168022251
:102DE00011430522914301601B480168016001689D
:102DF0000160016801600168184A114001600168C2
:102E00001D221204114301601048016801221206BC
:102E100011430160FFE70D4800688001002801D4DC
:102E2000FFE7F8E70C48016803229143016001685D
:102E3000022211430160FFE70748006800070028ED
:102E400001D4FFE7F8E703B07047C0460010024026
:102E5000FFFF00000020024004100240FFFFC27785
:102E600080B5FFF78BFF80BD80B508480068FDF78F
:102E70007FFB0749FDF77FF90649086008680649A6
:102E8000FDF73CF90549086080BDC04644030020B9
:102E90000024F44A6403002000007A446003002008
:102EA00081B00F4800680F490968884213D0FFE7D6
:102EB0000B4800680C491731884204D3FFE70848E3
:102EC00009490160FFE7064801684A1C026008786A
:102ED00069460870FFE76846007801B07047C04651
:102EE0008403002080030020F103002081B00090C3
:102EF0000098016880221143016001B07047000012
:102F000010B584B013460C46039002A8018001A9B5
:102F10000A8000880328009040D80098810001A210
:102F200051188F4600F006B800F010B800F01CB839
:102F300000F026B8039881690C229143816101A8B1
:102F4000008803998A6902438A6128E003988169AD
:102F500040F600429143816101A800880002039974
:102F60008A6902438A611AE00398C1690C2291437D
:102F7000C16101A800880399CA690243CA610EE0D1
:102F80000398C16940F600429143C16101A80088DD
:102F900000020399CA690243CA6100E0FFE704B076
:102FA00010BD81B00090009800210180009801229E
:102FB0004280009881800098C18001B07047000075
:102FC00084B00B46039002A8018001920088032878
:102FD000009000D963E10098810001A251188F464A
:102FE00000F006B800F063B800F0CBB800F023B9E9
:102FF0000398016A012291430162039881690322C7
:10300000914381610198008803990A6A02430A6228
:103010000398016A02229143016201988088039912
:103020000A6A02430A6203989E4988420FD0FFE76A
:1030300003989D4988420AD0FFE703989B4988423C
:1030400005D0FFE703989A4988422FD1FFE70398FC
:10305000016A0422914301620198408803990A6A37
:1030600002430A620398016A0822914301620198AF
:10307000C08803990A6A02430A620398416840F2D1
:103080000012914341600198008903994A68024304
:103090004A600398416840F20022914341600198E0
:1030A000408903994A6802434A60FFE7F8E00398C1
:1030B000016A1022914301620398816940F2003253
:1030C0009143816101980088000103990A6A0243D3
:1030D0000A620398016A2022914301620198808864
:1030E000000103990A6A02430A6203986D49884203
:1030F00033D1FFE70398016A4022914301620198AE
:103100004088000103990A6A02430A620398016A2F
:103110008022914301620198C088000103990A6AE4
:1031200002430A620398416840F2004291434160C1
:1031300001980089800003994A6802434A60039815
:10314000416840F600029143416001984089800047
:1031500003994A6802434A60FFE70398524988424C
:103160000ED1FFE70398416840F20042914341606D
:1031700001980089800003994A6802434A60FFE78A
:103180008EE00398016A40F20012914301620398B5
:10319000C16903229143C16101980088000203992B
:1031A0000A6A02430A620398016A40F200229143CC
:1031B000016201988088000203990A6A02430A6248
:1031C00003983849884235D1FFE70398016A40F2F5
:1031D00000429143016201984088000203990A6A03
:1031E00002430A620398016A40F6000291430162B9
:1031F0000198C088000203990A6A02430A62039890
:10320000416841F200029143416001980089000148
:1032100003994A6802434A600398416842F20002F7
:103220009143416001984089000103994A68024333
:103230004A60FFE734E00398016A41F200029143DB
:1032400001620398C16940F200329143C161019863
:103250000088000303990A6A02430A620398016A1C
:1032600042F20002914301620198808800030399B1
:103270000A6A02430A6203980A4988420ED1FFE7AC
:103280000398416844F2000291434160019800892B
:10329000800103994A6802434A60FFE700E0FFE7C4
:1032A00004B07047002C0140004001400044014040
:1032B0000048014010B584B013460C46039002A8A4
:1032C000018001A90A8000880328009040D8009856
:1032D000810001A251188F4600F006B800F010B826
:1032E00000F01CB800F026B8039881697022914361
:1032F000816101A8008803998A6902438A6128E0F4
:103300000398816947F200029143816101A8008816
:10331000000203998A6902438A611AE00398C1692D
:1033200070229143C16101A800880399CA690243D0
:10333000CA610EE00398C16947F200029143C1617E
:1033400001A8008800020399CA690243CA6100E02B
:10335000FFE704B010BD000084B00B46039002A844
:10336000018001920088032800901DD800988100F8
:1033700001A251188F46C04600F006B800F008B808
:1033800000F00AB800F00CB80198039948630CE00B
:1033900001980399886308E001980399C86304E0E1
:1033A00001980399086400E0FFE704B0704700004B
:1033B00010B584B013460C46039002A8018001A901
:1033C0000A8000880328009040D80098810001A25C
:1033D00051188F4600F006B800F010B800F01CB885
:1033E00000F026B80398816908229143816101A801
:1033F000008803998A6902438A6128E003988169F9
:1034000040F600029143816101A8008800020399FF
:103410008A6902438A611AE00398C16908229143CC
:10342000C16101A800880399CA690243CA610EE01C
:103430000398C16940F600029143C16101A8008868
:1034400000020399CA690243CA6100E0FFE704B0C1
:1034500010BD81B00090009800210180009841804B
:10346000009881800098C180009801810098418176
:1034700001B0704780B58EB00920C006022100223D
:103480008023069005920493FEF7ACFE0322069873
:103490000599049BFEF7EEFE01200699039008466D
:1034A0000399049AFEF7FEFD2048FFF777FBC74813
:1034B000029000F095F807A8019000F0A3FA4720C9
:1034C0000199088005984880888019220992C8804F
:1034D0000873029800F006F90BA80090FFF7B9FFF7
:1034E000039800990880059A4A808A80CA800A81D8
:1034F0004A8102980399009AFFF762FD0C22029814
:103500000399FFF729FF602202980399FFF7D2FE83
:1035100002980399059AFFF74BFF0298FFF7E6FC24
:10352000029800F0CDF80EB080BDC0460107000043
:1035300080B58AB040F20870FFF730FBA4480590D0
:1035400000F04EF806A8049000F05CFA47200499B9
:103550000880002048808880154A0892C880059A13
:103560000390104600F0BEF812480290FFF719FDD4
:1035700003980299088001224A808880C8800598B3
:103580000399029A00F02CF90598FFF7AFFC03208D
:10359000059901900846019900F00DFA05980199E6
:1035A00000F0FFF9059800F094F80AB080BDC0461D
:1035B000204E0000CA03002082B00190002000903D
:1035C0000198406A0090009802B0704782B00A46A5
:1035D00001906846018000880199486202B07047F6
:1035E00080B58AB00990099878498842089026D019
:1035F000FFE72D480899814229D0FFE774480899D0
:1036000081422CD0FFE77048089981420FD0FFE734
:103610007048089981422BD0FFE76F480899814292
:103620002FD0FFE76D480899814232D039E0234816
:103630000790FFF7D7FA0798FFF7C2FA32E01E4863
:103640000690FFF7CFFA0698FFF7BAFA2AE0194872
:103650000590FFF7C7FA0598FFF7B2FA22E040F2AB
:1036600008400490FFF7BEFA0498FFF7A9FA19E0A2
:1036700040F210300390FFF7B5FA0398FFF7A0FA75
:1036800010E00B480290FFF7ADFA0298FFF798FAA6
:1036900008E006480190FFF7A5FA0198FFF790FAB5
:1036A00000E0FFE70AB080BD0010004012030000F8
:1036B0001103000004040000010400000B030000DB
:1036C00081B000900098016801229143016001B02F
:1036D000704781B000900098016801221143016099
:1036E00001B0704782B00190009100980088019964
:1036F000886201983449884205D0FFE70198334930
:10370000884212D1FFE7019801687022914301605D
:103710000098408801990A6802430A6000988088EE
:1037200001990A6802430A60FFE7009880680199DE
:10373000C86201982449884219D0FFE701982349BB
:10374000884214D0FFE70198214988420FD0FFE753
:103750000198204988420AD0FFE701981E49884213
:1037600005D0FFE701981D4988420DD1FFE7019878
:10377000016840F20032914301600098C0880199CD
:103780000A6802430A60FFE701980F4988420FD098
:10379000FFE701980F4988420AD0FFE701980E49D8
:1037A000884205D0FFE701980C49884205D1FFE720
:1037B0000098007B01990863FFE7019841690122A5
:1037C0001143416102B07047002C014000040040E9
:1037D00000200040004001400044014000480140FA
:1037E00080B584B00B46039002A801800192008846
:1037F0000328009000D9CAE00098810001A2511866
:103800008F46C04600F006B800F030B800F05EB851
:1038100000F08BB80398016A01229143016203987A
:10382000016A0A23994301620198008803990B6A8F
:1038300003430B62039881690323994381610198D3
:10384000408803998B6903438B6103988169F02356
:10385000994381610198C088000103998B690343F2
:103860008B610398016A1143016291E00398016A38
:103870001022914301620398016AA02399430162D7
:1038800001980088000103990B6A03430B620398B7
:10389000816940F2003399438161019840880002B8
:1038A00003998B6903438B61039881694FF200038D
:1038B000994381610198C088000303998B69034390
:1038C0008B610398016A1143016261E00398016A08
:1038D00040F20012914301620398016A40F600230E
:1038E0009943016201980088000203990B6A03431F
:1038F0000B620398C16903239943C1610198408811
:103900000399CB690343CB610398C169F0239943C1
:10391000C1610198C08800010399CB690343CB6161
:103920000398016A1143016232E00398016A41F28F
:103930000002914301620398016A4AF2000399432D
:10394000016201980088000303990B6A03430B622C
:103950000398C16940F200339943C16101984088DE
:1039600000020399CB690343CB610398C1694FF20D
:1039700000039943C1610198C08800030399CB6992
:103980000343CB610398016A1143016200E0FFE742
:10399000039802A90988019A9288FFF7B1FA04B046
:1039A00080BD82B00190009100980199CA680243DD
:1039B000CA6002B0704782B0019000910098C04385
:1039C0000199086102B0704784B002900191029899
:1039D000C068019908400090029800690199084266
:1039E00008D0FFE70098002804D0FFE703A80121D2
:1039F000017003E003A800210170FFE703A800782D
:103A000004B0704781B000900098002101800098B8
:103A10004180009881800098034A82600098C180AC
:103A20000098017301B07047FFFF000081B00146AC
:103A30006A461070C2480068BF4A1268801A01289E
:103A400001D1FFE722E0BC480068BD49096888420F
:103A500009D9FFE7B8480068B9490968401A17282A
:103A600001D3FFE711E0B4480068B4491731884238
:103A700004D3FFE7B048B1490160FFE70098AE49C1
:103A80000A68531C0B601070FFE7FFE701B0704736
:103A900080B582B0014601AA10701078009100F044
:103AA00021F902B080BD000080B588B00790069172
:103AB0000020059004900390029007989649884250
:103AC00001900AD0FFE73F48019981420AD1FFE700
:103AD0000520FEF7E1FE059005E00220FEF7DCFE82
:103AE000059000E0FFE7079800680004002818D55B
:103AF000FFE70598400006994A088018B0FBF1F0EE
:103B00000290029813490840049002980007400F61
:103B1000039004A8008803A9098808430799C8608E
:103B200016E0059806994A088018B0FBF1F002905B
:103B3000029808490840049002980F210840039019
:103B400004A8008803A9098808430799C860FFE70B
:103B500008B080BDF0FF000081B000900098406A7E
:103B60000649084001B0704782B00190009100986A
:103B7000024908400199886202B07047FF010000C5
:103B800080B584B0039003986349884202900DD0B9
:103B9000FFE70C480299814210D1FFE70B480190E2
:103BA000FFF720F80198FFF70BF808E006480090AF
:103BB000FFF718F80098FFF703F800E0FFE704B0FC
:103BC00080BDC04600380140110400000E03000013
:103BD00081B000900098016801221143016001B09A
:103BE000704783B00A4601906846018001990388B6
:103BF0009B09C95800881F231840C140C8070028E6
:103C000004D0FFE702A80121017003E002A800210F
:103C10000170FFE702A8007803B0704710B582B0CA
:103C20000A4601906846018000881F2103460B4028
:103C300001219940019B80091C580C431C5002B083
:103C400010BD10B585B00390029100200190009046
:103C5000039802A909888909405802991F22114036
:103C600001231C468C402040019003980299890D45
:103C70004058029912041140090C8B4018400090E2
:103C80000098002808D0FFE70198002804D0FFE73B
:103C900004A80121017003E004A800210170FFE7DE
:103CA00004A8007805B010BD82B001900091019881
:103CB0000168042291430160009801990A68024357
:103CC0000A6002B0704782B00190009101980168CB
:103CD000082291430160009801990A6802430A6032
:103CE00002B0704780B584B0014603AA1070107806
:103CF000094A02901046029A01911146FFF734FFDB
:103D0000FFE705480549FFF76CFF002801D1FFE7F1
:103D1000F7E704B080BDC04600440040070700003C
:103D2000A74806490160A7480160064800210170C4
:103D30000548FF210170704780030020F103002037
:103D400084030020890300204104002080B58AB04C
:103D500009A80021018008A80180FFE75D480088CC
:103D600000211E2807910DD8FFE700F015F9012169
:103D7000002200280692059101DC0698059005981E
:103D80000790FFE70798C007002809D0FFE7FFF773
:103D900087F850490A88531C0B804F498854DDE747
:103DA0004C480088062801DCFFE790E0FFE749481F
:103DB000008809A90988401A072873DBFFE709A8CA
:103DC00000884549085C552805D0FFE70998401C44
:103DD00009A90880EBE709A800883F494018407806
:103DE000AA2805D0FFE70998401C09A90880DEE74A
:103DF00009A80088384940188078002805D0FFE7D6
:103E00000998801C09A90880D1E709A80188324ACD
:103E100089180979090208AB19800088801840794F
:103E200008994018C01D18801888272805D3FFE777
:103E30000998C01C09A90880B9E72648008809A983
:103E40000988401A08A90988884201DAFFE729E0B1
:103E500009A80188204A5118089B5B1E9BB2049058
:103E6000084619460392FEF7BFF804990A8808AB82
:103E70001B88D218039BD218521E1278904205D08C
:103E8000FFE70998C01C09A9088090E709A80188E4
:103E900002900846FDF7E8FD08980999081802996C
:103EA000088084E709980B490A88101A0880088856
:103EB00001280CDBFFE709A8008807490818054A14
:103EC0001288019008460199FEF7B6FBFFE70AB099
:103ED00080BDC04608040020D203002080B582B017
:103EE0000A460190684601800198002805D0FFE746
:103EF00068460088002801D1FFE70FE0FFE7684629
:103F000001884A1E0280002908D0FFE70198007846
:103F1000FFF7BEFD0198401C0190F0E702B080BDA4
:103F200070B58AB013460C46054609AE307008A835
:103F3000017007A8028006A900220A70154A5526BA
:103F40001670AA265670089E9670099ED6704678FE
:103F50001671079E5671079EF61D0680079E761EF7
:103F6000B6B2059010460491314603930294019530
:103F70000092FEF739F8049908700698059A13889C
:103F8000009C1B195B1E187011882046FFF7A6FFC6
:103F90000AB070BD0A04002081B0094800680949D0
:103FA0000968884204D0FFE768460121017003E0F8
:103FB000684600210170FFE76846007801B070474D
:103FC00080030020840300200FB410B503A9044B24
:103FD000044A029800F0FCF810BC08BC04B0184772
:103FE000B51F0008000000200FB410B504A9074B4E
:103FF00002AA039800F0ECF8044602A9002000F0A1
:1040000083FC204610BC08BC04B0184709490008CE
:104010002021020C01D010211046020A01D01046C6
:104020000839020901D01046091F820801D0104644
:10403000891E420801D0881E7047081A704702E0A6
:1040400008C8121F08C1002AFAD170477047002023
:1040500001E001C1121F002AFBD17047F0B51FB467
:1040600086B00998089A030D0021024314D05148E4
:10407000514A1818504305141198012810981AD065
:10408000281A401C00264D4F4D490096019104907E
:10409000002812DA444211E01198012449A30128B2
:1040A00001D11098C1430698119A84600360C260E0
:1040B00041600BB0F0BD4042E4E70446210500201A
:1040C0003F4A001C51410391029012E0E00707D0E3
:1040D00032463B4601990098FCF73EF90191009069
:1040E00032463B4610461946FCF736F906460F465F
:1040F0006410002CEAD10498039B0028029A0999C5
:10410000089806DAFCF728F9019B009AFCF724F9D5
:1041100005E0FCF789F9019B009AFCF785F9044654
:104120000E460022284BFCF7A5FB03D80020C04315
:10413000014607E00022254B20463146FCF75AF89D
:10414000FCF778FB102409E0002C0ADB0A2200238C
:10415000FCF76CFA079B30321A55641E02460A437C
:10416000F2D11122641C079B121B1C19119B012BFD
:1041700003D0012308430ED10AE0084304D01120E4
:1041800010900020119077E71098151A6D1E0BE023
:104190001098824202DD00236D1C03E0824201DAA6
:1041A00000236D1E002BEED0069811998260C1602D
:1041B00030C07EE701FCFFFF104D000000001440FE
:1041C0000000F03F300000000000F0430000E03F3E
:1041D000FFB597B00646002518E2252877D10024C0
:1041E0002746FD49049400E00443761C3278012000
:1041F000203A90400842F7D130782A280ED0022287
:10420000307801463039092916D804990A235943D0
:10421000303940181443761C0490F1E7189802C80E
:1042200004911890002904DA012040030443484215
:10423000049002200443761C30782E2814D10420E8
:1042400004437078761C2A2809D11898761C80C8F7
:10425000189009E00A214F43303FC719761C307887
:10426000014630390929F5D930786C2810D006DCA0
:104270004C281AD068280ED06A2817D104E0742878
:1042800013D07A2812D110E00120400504430CE03D
:104290000121090501E0032109050C4371788142E0
:1042A00003D1012000052418761C761C307811906B
:1042B00066280BD013DC58287DD009DC00287BD081
:1042C0004528F6D04628F4D047281AD1A5E118E0B1
:1042D000632835D0642870D0652812D19DE17028FC
:1042E0006CD008DC6728F1D069287BD06E280DD00F
:1042F0006F2806D1BAE073282ED0752871D078289F
:1043000059D01A9A199990476D1C7EE16002400FAE
:10431000022809D003280DD00428189801680DD070
:104320000D60001D189070E11898EA1701680D6083
:104330004A60F6E7189801680D80F2E70D70F0E723
:1043400018986A4601781172001D1890002050726A
:1043500002A80090012005E0189802C818900020DB
:104360000091C04361070DD5002101E00199491C6E
:104370000191B94212DA8142F8DB009A515C0029BE
:10438000F4D10BE0002101E00199491C0191814227
:10439000FADB019A0099895C0029F5D1019904980A
:1043A0001A9B471A21463846199A00F097FA019944
:1043B000401945180BE04FE02CE113E04EE0009867
:1043C00000990078491C00911A9A19999047019810
:1043D000401E0190401CF2D1214638461A9B199A82
:1043E00010E137E00A200021009001916002410FA6
:1043F000022907D0189A01CA1892C21794460329B5
:1044000008D00AE01898C01DC108C90005C9189154
:10441000944607E000B2C2179446042902D140B284
:10442000C1178C4600226146944506DA0A460021EF
:10443000404291418C462D2102E0210504D52B21DB
:104440006A461173012103E0E10701D02021F7E75B
:10445000029155E00A200AE0102008E010200090A8
:104460000021042004430191082703E008200021D3
:10447000019100906002410F022907D0189A01CAE9
:10448000189200229446032908D008E01898C01D0D
:10449000C108C90005C91891944603E080B20429F7
:1044A00000D1C0B200210291210729D511997029AC
:1044B00006D0009A1021019B4A401A4305D00EE015
:1044C00040216A461173012108E06146014306D08C
:1044D00030216A4611731199517302210291009A99
:1044E0000821019B4A401A430AD16146014301D188
:1044F000610705D530216A46117301217F1E0291A3
:104500001199582904D035A10E910DA90D910DE0F6
:1045100037A1F9E76146019B009AFCF787F80E9BEB
:104520008C469B5C0D9A521E0D921370614601439E
:10453000F0D10D9805A9081A20300190600703D525
:1045400001200004844300E001270198874201DD37
:10455000381A00E0002001990090411802980918CB
:104560000498401A0490E00306D421461A9B199A35
:10457000049800F0B3F94519002706E003A81A9A39
:10458000C05D199990476D1C7F1C02988742F5DB2E
:10459000E0030CD521461A9B199A049800F09EF965
:1045A000451904E01A9A3020199990476D1C00991A
:1045B000481E00900029F5DC08E00D980D99007860
:1045C000491C0D911A9A199990476D1C0199481E22
:1045D00001900029F1DC63E1092801003031323318
:1045E000343536373839616263646566000000002F
:1045F0003031323334353637383941424344454619
:104600000000000000F05AF94519761C30780028A7
:1046100000D0E2E528461BB0F0BD600700D40627B5
:104620001898C01DC108C90048680A680831C30F3E
:10463000DB071891190001D09CA108E0210501D5E4
:104640009BA104E0E10701D09AA100E09AA14300F8
:1046500011985B08109165280CD006DC452809D01C
:1046600046281DD0472841D141E0662818D0672848
:104670003CD13CE00021112F01DB112000E0781C2F
:104680000191009008A911A8FFF7E8FC1399059182
:104690000021119A15927F1C12980197009150E009
:1046A0000120C00703900120019008A9009711A8DC
:1046B000FFF7D4FC139A149905920022119B0092E3
:1046C00012981593059A0192002901D0104602E034
:1046D000791C40180190381A01D5019804E0404235
:1046E000401E0090781C0190C01B029043E0012FF7
:1046F00000DA01270021112F01DD112000E03846EA
:104700000191009008A911A8FFF7A8FC1399059141
:10471000119A0021129815920091019721070CD44B
:104720000599B94201DB019900E00191012904DDFD
:10473000159A491E515C302906D0B84201DA011D94
:1047400005DA0121029115E00199491EEDE70028E3
:1047500005DC0099411800910199091A03E0019ABA
:10476000411C914200DD01910099401A401C0290C9
:104770000120C0070390200706D4029901988142C6
:1047800002DB0020C043029000206946C87707AFD3
:10479000012103980337C907884224D002201190D1
:1047A0002B201290039800280CDA404203902D2011
:1047B000129007E00A210398FBF722FF30317F1E99
:1047C000039039701199481E11900029F2DC03986A
:1047D0000028EFD1791E1298087030782021084007
:1047E0004530BF1E387006A8C01BC01D039010982E
:1047F0000078002800D00120019941180298C017C4
:104800000918039809180498401A401E0490E00300
:1048100006D421461A9B199A049800F05FF84519AE
:1048200010980078002803D01A9A199990476D1CA7
:10483000E00324D521461A9B199A049800F04EF8FB
:1048400045191CE00098002807DB0099059888426C
:1048500003DD1598405C199901E0199930201A9AE6
:10486000904700986D1C401C00900298401E0290DA
:10487000002804D11A9A2E20199990476D1C01998D
:10488000481E01900029DDDC05E038781A9A7F1C6B
:10489000199990476D1C0399481E03900029F4DC78
:1048A00021461A9B199A0498ACE600002D000000DE
:1048B0002B0000002000000000000000F8B50446B6
:1048C00000251E461746880404D405E039462020FA
:1048D000B0476D1C641EF9D52846F8BDFFB50446E7
:1048E000002581B01E46C80301D5302700E02027EF
:1048F000880404D505E038460399B0476D1C641E52
:10490000F9D5284605B0F0BD0A68531C0B6010703D
:1049100070470000000000000000000000000000E0
:104920000000000000F8000000000000003330002C
:10493000000000100C06100C060000000000000033
:10494000000040C07840C0784000043F04043F04A9
:104950000400007088FC08300000001820FF211EB1
:104960000000F008F000E018000000211C031E21E8
:104970001E0000F00888700000001E212324192763
:10498000211010160E0000000000000000000000C2
:104990000000000000E018040200000000071820DA
:1049A000400000020418E00000000040201807004A
:1049B0000000404080F0804040000202010F0102F0
:1049C0000200000000F0000000000101011F0101D1
:1049D0000100000000000000000080B07000000036
:1049E00000000000000000000000000101010101C2
:1049F0000101000000000000000000303000000055
:104A0000000000000000806018040060180601002B
:104A1000000000E010080810E000000F1020201037
:104A20000F00001010F8000000000020203F2020A0
:104A30000000007008080888700000302824222137
:104A400030000030088888483000001820202011ED
:104A50000E000000C02010F8000000070424243FCE
:104A6000240000F808888808080000192120201177
:104A70000E0000E0108888180000000F112020119F
:104A80000E0000380808C83808000000003F000089
:104A900000000070880808887000001C2221212274
:104AA0001C0000E010080810E00000003122221174
:104AB0000F00000000C0C000000000000030300007
:104AC0000000000000800000000000008060000086
:104AD00000000000804020100800000102040810BF
:104AE00020004040404040404000040404040404CE
:104AF000040000081020408000000020100804027C
:104B00000100007048080808F0000000003036017D
:104B10000000C030C828E810E0000718272423143C
:104B20000B000000C038E0000000203C23020227F8
:104B3000382008F8888888700000203F2020201145
:104B40000E00C03008080808380007182020201080
:104B5000080008F808080810E000203F2020201076
:104B60000F0008F88888E8081000203F2020232044
:104B7000180008F88888E8081000203F200003008B
:104B80000000C03008080838000007182020221E46
:104B9000020008F808000008F808203F2101012160
:104BA0003F20000808F8080800000020203F2020CF
:104BB000000000000808F8080800C08080807F001E
:104BC000000008F888C028180800203F2001263877
:104BD000200008F8080000000000203F20202020CE
:104BE000300008F8F800F8F80800203F003F003FC8
:104BF000200008F830C00008F808203F20000718FF
:104C00003F00E01008080810E0000F1020202010DE
:104C10000F0008F808080808F000203F21010101F2
:104C20000000E01008080810E0000F182424385095
:104C30004F0008F8888888887000203F2000030C07
:104C40003020007088080808380000382021212210
:104C50001C00180808F8080818000000203F200071
:104C6000000008F808000008F808001F2020202095
:104C70001F000878880000C83808000007380E01B7
:104C80000000F80800F80008F800033C0700073CA3
:104C90000300081868808068180820302C03032C53
:104CA00030200838C800C83808000000203F200025
:104CB000000010080808C8380800203826212020E5
:104CC0001800000000FE020202000000007F4040C9
:104CD0004000000C30C00000000000000001063859
:104CE000C00000020202FE000000004040407F00C1
:104CF00000000000040202020400000000000000A6
:104D000000000000000000000000808080808080A3
:104D1000808000020204000000000000000000008B
:104D200000000000808080800000001924222222E0
:104D30003F2008F8008080000000003F1120201173
:104D40000E000000008080800000000E1120202056
:104D50001100000000808088F800000E1120201053
:104D60003F200000808080800000001F222222223D
:104D70001300008080F0888888180020203F2020C1
:104D800000000000808080808000006B94949493E9
:104D9000600008F8008080800000203F2100002093
:104DA0003F2000809898000000000020203F202035
:104DB0000000000000809898000000C08080807F84
:104DC000000008F8000080808000203F24022D3081
:104DD0002000000808F8000000000020203F2020EC
:104DE00000008080808080808000203F20003F2065
:104DF000003F8080008080800000203F2100002054
:104E00003F200000808080800000001F20202020A4
:104E10001F00808000808000000080FFA120201102
:104E20000E000000008080808000000E112020A075
:104E3000FF80808080008080800020203F21200033
:104E4000010000008080808080000033242424241E
:104E50001900008080E0808000000000001F2020FA
:104E600000008080000000808000001F20202010B3
:104E70003F20808080000080808000010E30080686
:104E8000010080800080008080800F300C030C3097
:104E90000F0000808000808080000020312E0E31C5
:104EA0002000808080000080808080818E701806C5
:104EB000010000808080808080000021302C222131
:104EC000300000000000807C020200000000003F73
:104ED000404000000000FF00000000000000FF0054
:104EE00000000002027C800000000040403F000003
:104EF000000000060101020204040000000000009E
:104F00000000010202026503660125640D0A002506
:104F1000730D0A00252358007B2270223A220022BA
:104F20002C2276223A2200312E302E3000222C22E2
:104F30006D223A006862626B637669363761346C61
:104F40006D766671007D004352435F4552524F5269
:104F50002C726574203D20307825780D0A003A25A2
:104F60002E31662525003A252E3166002531307315
:104F700000000000984F00080000002058030000C7
:104F8000C00800080851000858030020F004000081
:104F90004E4000080000000051000D1440424458EB
:104FA00040407F40405048C67B4044010213FF18F8
:104FB0000D0808E8292E28E80808C80C0B0601137C
:104FC00026FF0949897F1C0F4080060111251060CA
:104FD000028C2BFE92010213FE180A04047E01408B
:104FE0007E42427E020C14427E4040493F091740F7
:104FF0001C444850E00D107F50484440212809FCD3
:10500000242424FC25262408021104001011403019
:105010008F80844C55252525554C8080801F20305D
:10502000AC632018671B04FC0401121808226722D5
:10503000121212400119830A11408027C0301F103C
:1050400010F00C10FF20405E2137814021120C032C
:1050500032FF290801111BF888012AFF050215F803
:105060001B1F08012A7F201B9F8068F11B80707A1C
:105070001A10BB39C00910C1278060180708300416
:105080001640807F191D1BFF200119050411222CD9
:1050900020080D1304040201FF8040300E010618A1
:1050A000E2080D100484844424548F14244484841E
:1050B0007F11234139080C103C4040424C40407065
:1050C000040931A01D828282FE044906091160197B
:1050D0007C520F0217FF000C131011161010F01065
:1050E000101413100010128181414121110D030D84
:1050F0001121414181815808A24A04443078660157
:08510000510000000000000056
:04000005080000CD22
:00000001FF
